{
  "contractName": "Invoice",
  "abi": [
    {
      "constant": true,
      "inputs": [],
      "name": "invoiceNo",
      "outputs": [
        {
          "name": "",
          "type": "uint256"
        }
      ],
      "payable": false,
      "stateMutability": "view",
      "type": "function",
      "signature": "0x1b2d0d4c"
    },
    {
      "constant": true,
      "inputs": [
        {
          "name": "",
          "type": "uint256"
        }
      ],
      "name": "InoviceData",
      "outputs": [
        {
          "name": "BuyerPan",
          "type": "string"
        },
        {
          "name": "SellerPan",
          "type": "string"
        },
        {
          "name": "Amount",
          "type": "uint32"
        },
        {
          "name": "Time",
          "type": "uint256"
        },
        {
          "name": "PaymentStatus",
          "type": "bool"
        }
      ],
      "payable": false,
      "stateMutability": "view",
      "type": "function",
      "signature": "0xbff55abb"
    },
    {
      "constant": false,
      "inputs": [
        {
          "name": "_buyerPan",
          "type": "string"
        },
        {
          "name": "_sellerPan",
          "type": "string"
        },
        {
          "name": "_amt",
          "type": "uint32"
        },
        {
          "name": "_pmtStatus",
          "type": "bool"
        }
      ],
      "name": "generateInvoice",
      "outputs": [
        {
          "name": "",
          "type": "uint256"
        }
      ],
      "payable": false,
      "stateMutability": "nonpayable",
      "type": "function",
      "signature": "0xf65cc0ef"
    },
    {
      "constant": true,
      "inputs": [
        {
          "name": "_invoiceNo",
          "type": "uint256"
        }
      ],
      "name": "checkPmtStatus",
      "outputs": [
        {
          "name": "",
          "type": "bool"
        }
      ],
      "payable": false,
      "stateMutability": "view",
      "type": "function",
      "signature": "0xf991bfb7"
    },
    {
      "constant": false,
      "inputs": [
        {
          "name": "_invoiceNo",
          "type": "uint256"
        }
      ],
      "name": "updatePmtStatus",
      "outputs": [
        {
          "name": "",
          "type": "bool"
        }
      ],
      "payable": false,
      "stateMutability": "nonpayable",
      "type": "function",
      "signature": "0x83ceed31"
    },
    {
      "constant": true,
      "inputs": [
        {
          "name": "_buyerPan",
          "type": "string"
        }
      ],
      "name": "getBuyerInvoices",
      "outputs": [
        {
          "name": "",
          "type": "uint256[]"
        }
      ],
      "payable": false,
      "stateMutability": "view",
      "type": "function",
      "signature": "0x82c9a37d"
    }
  ],
  "bytecode": "0x60806040526000805534801561001457600080fd5b50610ca9806100246000396000f3fe608060405260043610610078576000357c0100000000000000000000000000000000000000000000000000000000900463ffffffff1680631b2d0d4c1461007d57806382c9a37d146100a857806383ceed3114610183578063bff55abb146101d6578063f65cc0ef1461031b578063f991bfb714610426575b600080fd5b34801561008957600080fd5b50610092610479565b6040518082815260200191505060405180910390f35b3480156100b457600080fd5b5061012c600480360360208110156100cb57600080fd5b81019080803590602001906401000000008111156100e857600080fd5b8201836020820111156100fa57600080fd5b8035906020019184600183028401116401000000008311171561011c57600080fd5b909192939192939050505061047f565b6040518080602001828103825283818151815260200191508051906020019060200280838360005b8381101561016f578082015181840152602081019050610154565b505050509050019250505060405180910390f35b34801561018f57600080fd5b506101bc600480360360208110156101a657600080fd5b810190808035906020019092919050505061057a565b604051808215151515815260200191505060405180910390f35b3480156101e257600080fd5b5061020f600480360360208110156101f957600080fd5b8101908080359060200190929190505050610660565b6040518080602001806020018663ffffffff1663ffffffff16815260200185815260200184151515158152602001838103835288818151815260200191508051906020019080838360005b8381101561027557808201518184015260208101905061025a565b50505050905090810190601f1680156102a25780820380516001836020036101000a031916815260200191505b50838103825287818151815260200191508051906020019080838360005b838110156102db5780820151818401526020810190506102c0565b50505050905090810190601f1680156103085780820380516001836020036101000a031916815260200191505b5097505050505050505060405180910390f35b34801561032757600080fd5b506104106004803603608081101561033e57600080fd5b810190808035906020019064010000000081111561035b57600080fd5b82018360208201111561036d57600080fd5b8035906020019184600183028401116401000000008311171561038f57600080fd5b9091929391929390803590602001906401000000008111156103b057600080fd5b8201836020820111156103c257600080fd5b803590602001918460018302840111640100000000831117156103e457600080fd5b9091929391929390803563ffffffff1690602001909291908035151590602001909291905050506107e3565b6040518082815260200191505060405180910390f35b34801561043257600080fd5b5061045f6004803603602081101561044957600080fd5b8101908080359060200190929190505050610b26565b604051808215151515815260200191505060405180910390f35b60005481565b60606000838390501115156104fc576040517f08c379a00000000000000000000000000000000000000000000000000000000081526004018080602001828103825260118152602001807f496e76616c69642062757965722050414e00000000000000000000000000000081525060200191505060405180910390fd5b60028383604051808383808284378083019250505092505050908152602001604051809103902080548060200260200160405190810160405280929190818152602001828054801561056d57602002820191906000526020600020905b815481526020019060010190808311610559575b5050505050905092915050565b6000808211801561058d57506000548211155b1515610601576040517f08c379a00000000000000000000000000000000000000000000000000000000081526004018080602001828103825260138152602001807f496e76616c696420496e766f696365204e6f2e0000000000000000000000000081525060200191505060405180910390fd5b60006001600084815260200190815260200160002090508060040160009054906101000a900460ff16158160040160006101000a81548160ff0219169083151502179055508060040160009054906101000a900460ff16915050919050565b6001602052806000526040600020600091509050806000018054600181600116156101000203166002900480601f01602080910402602001604051908101604052809291908181526020018280546001816001161561010002031660029004801561070c5780601f106106e15761010080835404028352916020019161070c565b820191906000526020600020905b8154815290600101906020018083116106ef57829003601f168201915b505050505090806001018054600181600116156101000203166002900480601f0160208091040260200160405190810160405280929190818152602001828054600181600116156101000203166002900480156107aa5780601f1061077f576101008083540402835291602001916107aa565b820191906000526020600020905b81548152906001019060200180831161078d57829003601f168201915b5050505050908060020160009054906101000a900463ffffffff16908060030154908060040160009054906101000a900460ff16905085565b6000808787905011151561085f576040517f08c379a00000000000000000000000000000000000000000000000000000000081526004018080602001828103825260118152602001807f496e76616c69642062757965722050414e00000000000000000000000000000081525060200191505060405180910390fd5b6000858590501115156108da576040517f08c379a00000000000000000000000000000000000000000000000000000000081526004018080602001828103825260128152602001807f496e76616c69642073656c6c65722050414e000000000000000000000000000081525060200191505060405180910390fd5b60008363ffffffff1610151515610959576040517f08c379a000000000000000000000000000000000000000000000000000000000815260040180806020018281038252600e8152602001807f496e76616c696420416d6f756e7400000000000000000000000000000000000081525060200191505060405180910390fd5b600080815480929190600101919050555060a06040519081016040528088888080601f016020809104026020016040519081016040528093929190818152602001838380828437600081840152601f19601f82011690508083019250505050505050815260200186868080601f016020809104026020016040519081016040528093929190818152602001838380828437600081840152601f19601f8201169050808301925050505050505081526020018463ffffffff16815260200142815260200183151581525060016000805481526020019081526020016000206000820151816000019080519060200190610a52929190610bd8565b506020820151816001019080519060200190610a6f929190610bd8565b5060408201518160020160006101000a81548163ffffffff021916908363ffffffff1602179055506060820151816003015560808201518160040160006101000a81548160ff021916908315150217905550905050600287876040518083838082843780830192505050925050509081526020016040518091039020600054908060018154018082558091505090600182039060005260206000200160009091929091909150555060005490509695505050505050565b60008082118015610b3957506000548211155b1515610bad576040517f08c379a00000000000000000000000000000000000000000000000000000000081526004018080602001828103825260138152602001807f496e76616c696420496e766f696365204e6f2e0000000000000000000000000081525060200191505060405180910390fd5b6001600083815260200190815260200160002060040160009054906101000a900460ff169050919050565b828054600181600116156101000203166002900490600052602060002090601f016020900481019282601f10610c1957805160ff1916838001178555610c47565b82800160010185558215610c47579182015b82811115610c46578251825591602001919060010190610c2b565b5b509050610c549190610c58565b5090565b610c7a91905b80821115610c76576000816000905550600101610c5e565b5090565b9056fea165627a7a72305820443dda3d23645abedf08f27cbbe011b0e068df1b69ce592d6ab1237b77644ddf0029",
  "source": "// SPDX-License-Identifier: MIT\r\npragma solidity >=0.4.22 <0.9.0;\r\n\r\ncontract Invoice {\r\n    uint public invoiceNo = 0; \r\n\r\n    struct Data{\r\n        string BuyerPan;\r\n        string SellerPan;\r\n        uint32 Amount;\r\n        uint Time ;\r\n        bool PaymentStatus;\r\n    }\r\n\r\n    mapping(uint => Data) public InoviceData;\r\n    mapping(string => uint[]) private BuyerInvoices;\r\n\r\n    function generateInvoice(string calldata _buyerPan, string calldata _sellerPan, uint32 _amt, bool _pmtStatus) external returns(uint){\r\n        require(bytes(_buyerPan).length > 0,\"Invalid buyer PAN\");\r\n        require(bytes(_sellerPan).length > 0,\"Invalid seller PAN\");\r\n        require(_amt >= 0 ,\"Invalid Amount\");\r\n\r\n        invoiceNo++;\r\n        InoviceData[invoiceNo] = Data(_buyerPan,_sellerPan,_amt,block.timestamp,_pmtStatus);\r\n        BuyerInvoices[_buyerPan].push(invoiceNo);\r\n        return invoiceNo;\r\n    }\r\n\r\n    function checkPmtStatus(uint _invoiceNo) external view returns(bool) {\r\n        require(_invoiceNo > 0 && _invoiceNo <= invoiceNo ,\"Invalid Invoice No.\");\r\n        return InoviceData[_invoiceNo].PaymentStatus;\r\n    }\r\n\r\n    function updatePmtStatus(uint _invoiceNo) external returns(bool) {\r\n        require(_invoiceNo > 0 && _invoiceNo <= invoiceNo ,\"Invalid Invoice No.\");\r\n        Data storage invoiceData = InoviceData[_invoiceNo];\r\n        invoiceData.PaymentStatus = !invoiceData.PaymentStatus;\r\n        return invoiceData.PaymentStatus;\r\n    }\r\n\r\n    function getBuyerInvoices(string calldata _buyerPan) external view returns(uint[] memory){\r\n        require(bytes(_buyerPan).length > 0,\"Invalid buyer PAN\");\r\n        return BuyerInvoices[_buyerPan];\r\n    }\r\n}",
  "sourcePath": "C:/Users/ankit/Desktop/block/internship-smart-contract/contracts/Invoice.sol",
  "compiler": {
    "name": "solc",
    "version": "0.5.0+commit.1d4f565a.Emscripten.clang"
  },
  "schemaVersion": "3.0.2",
  "updatedAt": "2022-03-29T12:00:05.147Z",
  "devdoc": {
    "methods": {}
  },
  "userdoc": {
    "methods": {}
  }
}